:020000040800F2
:1000000080A100204501000859310008452B000857
:100010000D310008B70A000869460008000000001A
:10002000000000000000000000000000A1360008F1
:10003000BB0C0008000000006931000855370008BB
:100040005F0100085F0100085F0100085F01000810
:100050005F0100085F0100085F0100085F01000800
:100060005F0100085F0100085F0100085F010008F0
:100070005F0100085F010008610C00086D0C0008BA
:10008000790C0008850C00085F0100085F0100087A
:100090005F0100085F0100085F0100085F010008C0
:1000A0005F0100085F0100085F0100085F010008B0
:1000B0005F010008D53700085F0100085F010008F4
:1000C0005F0100085F0100085F0100085F01000890
:1000D0005F010008C93D00082D3E00085F010008CF
:1000E0005F0100085F0100085F0100085F01000870
:1000F0005F0100085F0100085F0100085F01000860
:100100005F0100085F0100085F0100085F0100084F
:100110005F0100085F0100085F0100085F0100083F
:100120005F0100085F0100085F0100085F0100082F
:10013000DFF80CD000F03EFC00480047795500087D
:1001400080A100200648804706480047FEE7FEE7FA
:10015000FEE7FEE7FEE7FEE7FEE7FEE7FEE7FEE777
:10016000D337000831010008202A04DB203A21FAA5
:1001700002F00021704721FA02F3D040C2F12002C0
:10018000914008431946704740EA01039B0703D09A
:1001900009E008C9121F08C0042AFAD203E011F8C6
:1001A000013B00F8013B521EF9D27047D2B201E088
:1001B00000F8012B491EFBD270470022F6E710B56C
:1001C00013460A4604461946FFF7F0FF204610BDC5
:1001D00030B504460020034600E05B1C934203D286
:1001E000E05CCD5C401BF8D030BDF0B480EA010289
:1001F000D40F4200B2EB410F02D20246084611462C
:100200004A0042D0C30DDDB2C1F3C752AD1A202D52
:1002100035DAC1F3160141F4000204B15242C5F1CE
:10022000200602FA06F12A411044B3EBD05F23D036
:10023000C4B1012DA0EBC35009DCF0BC4FF000426B
:1002400002EAC352DBB200F5000000F0E1BA400060
:1002500000F1807000EBC350A0F1807040EAD170D3
:10026000490009E0490841EAC071A0EBC35000F51C
:100270000000400800EBC350F0BC00F0C0BA61427F
:10028000012202EB4101001BF6E7F0BC704781F050
:100290000041AAE780F00040A7E780EA010210B51C
:1002A00002F00043400022D04A001FD0010E01EBB3
:1002B0001261C0F35600C2F3560240F4000042F44B
:1002C0000002A0FB022000047F39140400D0401C6F
:1002D00050EA124001D44000491EC2B20C0604EBA1
:1002E000D010401C4008802A02D003E0002010BD3E
:1002F00020F00100002900DA0020184310BD30B4BE
:1003000080EA010202F0004530F0004221F0004096
:1003100013D090B1C30DD40DC2F31601C0F3160073
:10032000E41A41F4000140F400027D34914201D30B
:10033000641C00E04900002C02DA30BC0020704749
:100340004FF400000023914201D3891A034340086F
:100350004FEA4101F7D151B1914202D14FF0004132
:1003600005E002D24FF0010101E06FF0010103EB63
:10037000C450284430BC00F042BA2DE9FE4F8046FC
:1003800081EA0300C00F0C46009021F0004123F0E9
:100390000045B8EB0200A94105D2404621469046EF
:1003A0001C460B46024623F00040104347D0270D61
:1003B000C7F30A00C3F30A510290401A0190402883
:1003C0006BDAC3F3130040F4801B0098924620B10F
:1003D0000023D2EB030A63EB0B0B01985946C0F1E3
:1003E0004002504600F0EAF906460D46504659468E
:1003F000019A00F0F2F910EB08006141002487EA4D
:10040000115284EAE7731A4340D0009A62B3019A0A
:10041000012A4FEA075215DC001B61EB02014FF085
:10042000004202EA0752CDE90042001C41F580116A
:1004300032462B4600F029FA03B0BDE8F08F404663
:100440002146F9E7001B61EB0201001C41F5801316
:1004500000185B412018A2F5001747EB030140EAA2
:10046000D570B6196D4111E06D084FEA360645EAC0
:10047000C0754FEA0752001B61EB0201001C41F5F9
:10048000801149084FEA30000019514132462B468D
:1004900003B0BDE8F04F00F0E9B900980122400038
:1004A0000023D0EB020263EBE073009821464FEA91
:1004B000E074B8EB000061EB0401E9E783F000436E
:1004C0005BE781F0004158E72DE9FE4F81EA030424
:1004D00004F0004421F0004100944FF0000B23F0A1
:1004E000004350EA01045ED052EA03045BD0C3F338
:1004F0000A54C1F30A552C44A4F2F3340194A0FB2E
:100500000254C1F3130141F48011C3F3130343F404
:10051000801301FB024400FB034E840A970A44EA5D
:10052000815447EA8357A4FB076802958D0A05FBAF
:1005300007854FEA932C04FB0C542705029D4FEAD4
:10054000065847EA1637B5EB08056EEB070C870E21
:10055000920E47EA811742EA8312A7FB0201B6EB2B
:100560000B0164EB00042B0D43EA0C335E1844EBE3
:100570001C50DA465146E7FB0201C5F313044FEA6B
:100580000B3343EA14534FEA0432019C43EA060357
:10059000A4F10C040294009CCDE900B400F075F9BC
:1005A00003B0BDE8F08F00200146F9E72DE9F04DDA
:1005B00081EA030404F0004B21F0004514464FF09B
:1005C000000A23F0004150EA050220D054EA01025B
:1005D0001DD0C5F30A570246C5F31303C1F3130038
:1005E000C1F30A5640F4801543F48013A7EB0608C4
:1005F000101BD64608F2FD3873EB050002D308F154
:10060000010801E092185B41B8F1000F03DA002005
:100610000146BDE8F08D00204FF480110646844667
:100620000EE0171B73EB050705D3121B63EB0503E5
:1006300006434CEA010C49084FEA300092185B412E
:1006400050EA0107EDD152EA030012D082EA040019
:1006500083EA0501084305D0101BAB4106D20122F5
:10066000002306E000224FF0004302E06FF0010299
:1006700053101AEB06004CEB085110EB0A0041EB4B
:100680000B01BDE8F04D00F0F1B8962300221146B1
:1006900000F0BEB80EB5C10F80EAE0700844CA078A
:1006A000002140F233438DE80E000A460B4600F06D
:1006B000ECF803B000BD0EB540F2334102910021C9
:1006C000CDE900110A460B4600F0DFF803B000BD8B
:1006D00000F0004230F000400AD0C10D01F5607119
:1006E000C0F3160042EA0151C208400711437047A7
:1006F00000200146704701F0004330B421F0004172
:1007000050EA010206D00A0DA2F56072C1F313018E
:10071000002A02DC30BC00207047440F44EAC104C8
:10072000C100E01830BC00EBC25000F068B830B532
:100730000B46014600202022012409E021FA02F59F
:100740009D4205D303FA02F5491B04FA02F5284439
:10075000151EA2F10102F1DC30BD2DE9F05F054666
:10076000002092469B4688460646814640241BE070
:100770002846414647462246FFF7F6FC53465A466E
:10078000C01A914110D311461846224600F016F8BF
:100790002D1A67EB01084F4622460120002100F088
:1007A0000DF817EB00094E41201EA4F10104DFDC17
:1007B000484631462A464346BDE8F09F202A04DBDE
:1007C000203A00FA02F1002070479140C2F1200364
:1007D00020FA03F3194390407047202A06DBCB1719
:1007E000203A41FA02F043EAE07306E041FA02F3EC
:1007F000D040C2F1200291400843194670470029B9
:10080000A8BF7047401C490008BF20F00100704796
:1008100010B4B0FA80FC00FA0CF050EA010404BFF6
:1008200010BC704749B1CCF1200421FA04F411FA4C
:100830000CF118BF012121430843A3EB0C01CB1D90
:100840004FEA00614FEA102042BF002010BC704701
:1008500000EBC35010440029A4BF10BC7047401CDB
:10086000490008BF20F0010010BC704710B5141EED
:1008700073F1000408DA401C41F1000192185B4159
:100880001A4301D120F0010010BD2DE9F04D924630
:100890009B4611B1B1FA81F202E0B0FA80F2203247
:1008A0009046FFF78BFF04460F4640EA0A0041EAF4
:1008B0000B0153465A46084313D0114653EA010030
:1008C00019D0C8F140025046FFF74EFC05460E46CF
:1008D000504659464246FFF771FF084305D00120B4
:1008E00004E020463946BDE8F08D0020054346EA85
:1008F000E0762C4337430A986305E40AA0EB08002E
:100900000022FD0A44EA47540A3002D5002001467D
:10091000E9E7010510196941DDE908450019694158
:10092000BDE8F04DA2E770B521F0004303430CD0C1
:10093000C1F30A550024D5EB040564EB0403D61774
:10094000AD1AB34102DB0020014670BD201841EB17
:10095000025170BDC1F30A52C1F3130140F2FF33DB
:1009600041F480119A4202DA00200146704740F2B9
:1009700033439A42A2F2334202DC5242FFF7F4BB05
:10098000FFF71CBF30B5041E71F1000404DB4FF00B
:100990000044404264EB0101141E73F1000405DBC6
:1009A0001C464FF00043524263EB0403994208BFD8
:1009B000904230BD064C074D06E0E06840F0010370
:1009C00094E8070098471034AC42F6D3FFF7B4FB25
:1009D000C05F0008E05F000830B5041E71F100043C
:1009E00004DB4FF00044404264EB0101141E73F13C
:1009F000000405DB1C464FF00043524263EB040346
:100A00008B4208BF824230BD70B58C1810F8015B74
:100A100015F0070301D110F8013B2A1106D110F897
:100A2000012B03E010F8016B01F8016B5B1EF9D19B
:100A30002B0705D40023521E0DD401F8013BFAE721
:100A400010F8013BCB1A921C03E013F8015B01F88C
:100A5000015B521EF9D5A142D8D3002070BD000021
:100A600070B5044600688168C943C90717D1816819
:100A700021F00101816000F03DFF05460AE000BF62
:100A800000F038FF401B022804D920688068C0436A
:100A9000C00706D020688068C043C007F0D000209F
:100AA00070BDA06A40F01000A062E06A40F0010052
:100AB000E062012070BDFEE72DE9F05F18225A497F
:100AC0005A4802F01FFC5A4800248046C461564B25
:100AD0005848594ED8F81C2003EBC20106EBC20C53
:100AE000CF7907708F7947704F7987700F79C7700A
:100AF000CF7807718F7847714978817113F8321078
:100B0000C171D0E90017CCE90017521CC8F81C20AD
:100B1000062ADFDB4FF4806B5A464849484802F00A
:100B2000F1FB484DA24620462C60444E464C474FB0
:100B30004FF4007906EB8001CA7822708A786270DF
:100B40004978A17016F82010E170216847F830103C
:100B5000401C28604845EDDB5A4638493C4802F0C5
:100B6000D1FB48465A46C5F8009000BF06EB80010D
:100B7000A1F50061CB7823708B7863704B78A370FC
:100B80000978E170216847F83010401C28609042D5
:100B9000ECDB2A492F4802F0B5FB5046C5F800A00F
:100BA00006EB8001CA7822708A7862704978A17059
:100BB00016F8201007EBC002E1702168401C51605C
:100BC00028604845ECDBDA465A461C49224802F0C8
:100BD00099FB48465146C5F8009000BF06EB8002DD
:100BE000A2F50062D3782370937863705378A37072
:100BF000127807EBC003E2702268401C5A6028603C
:100C00008842EBDB02220D49144802F07BFBF078AE
:100C10002070B07860707078A0703078E0702168D3
:100C2000C8F82010BDE8F09F1F63002000F80708F7
:100C300000000020A8010020309D002087730020C4
:100C400000D00708A0010020A4010020307D002072
:100C500000D8070800E0070800E8070800C80708F0
:100C6000014800F02FBB0000647C0020014800F028
:100C700029BB0000207C0020014800F023BB0000BD
:100C8000A87C0020014800F01DBB0000EC7C002087
:100C900030B590F840500124AC40C56B6C600468DE
:100CA00063604368102B036803D099600068C260DA
:100CB00030BD9A600068C16030BD704772B6FEE713
:100CC000044B0022DA61044A136943F00103136103
:100CD00001807047609D00200020024014480022DF
:100CE000C168CB06134904D5CA6942F00202CA6141
:100CF0001022C3685B0705D5CB6943F00103CB61C4
:100D000042F00402C369DB0707D0CB6943F0040358
:100D1000CB61C16921F00101C161A2F58071013986
:100D200001D0C2607047C16921F00101C161704703
:100D300000200240609D002070B5054600F0DAFDFD
:100D40000646114C09E0681C07D025B100F0D2FD21
:100D5000801BA84201D9032070BDE068C007F2D112
:100D6000E068800601D52020E060E068C00605D478
:100D7000E069C00702D1E068400703D5FFF7AEFF86
:100D8000012070BD002070BD002002402DE9F04719
:100D90000F464FF6FF740146234604224A4801F0ED
:100DA00077FE1E2000F028FC032248494848FFF740
:100DB0000FFA41F2680540F60F06A0B1434903223D
:100DC000C91C4348FFF704FA002823466ED03F4968
:100DD000072245313F4801F05BFE3F482946BDE808
:100DE000F047FFF7EAB9384602F0B8F9A9462946B4
:100DF0003948FFF7E2F9354631463548FFF7DDF966
:100E00004FF4FA7000F0F8FB3049A0462346032265
:100E1000C91E2D4801F03CFE2C4C00272E4E143CE0
:100E20004FF47A7A22E0142000F0E6FB27490822EA
:100E3000AC312948FFF7CCF9C0B90621264802F0A9
:100E400067F9A080F179C2B291420FD1B179B1EBCB
:100E5000102F0BD1A78021A003F054FC504600F0C6
:100E6000CBFB012080F3108800F0E2FD092223492A
:100E70001748FFF7ADF90028D5D14FF4967000F070
:100E8000BBFB43462A461249124801F001FE1C48AA
:100E9000494607701048FFF790F929460C48FFF7BC
:100EA0008CF9BDE8F047142000F0A6BB07490322E7
:100EB0000939084801F0ECFD29460748FFF77DF99C
:100EC000314603488BE70000DC7B00201400002043
:100ED00087730020987B00201F63002057696C6C8B
:100EE000207265737461727420746865204D435577
:100EF00020696E203173202E2E2E00007B010020F1
:100F000088010020F8B50024009490F8242025469C
:100F1000012A12D0012280F824204A681F23072AC0
:100F20000DD20668776B521E02EB820293409F43FC
:100F30000B6893401F43776319E00220F8BD0668F1
:100F40000D2A0AD2376BD21F02EB820293409F43D5
:100F50000B6893401F43376309E0F76A0D3A02EBD1
:100F6000820293409F430B6893401F43F7620A68D5
:100F7000072306680A2A0AD3F7680A3A02EB4202F4
:100F800093409F438B6893401F43F76008E03769A5
:100F900002EB420293409F438B6893401F433761AB
:100FA0000A68102A01D0112A20D1124B02689A42F5
:100FB00017D193681B0219D4936843F4000393601C
:100FC0000968102912D10C490C4A0968B1FBF2F1E9
:100FD00001EB8101490000E0491E00910029FBD18D
:100FE00004E0816A41F020018162012480F82450EC
:100FF0002046F8BD00240140BC01002040420F0003
:101000002DE9F04104004FF0000514D0A06A00263D
:1010100028B9E66284F82460204600F083F8204670
:10102000FFF71EFDA16A01F01001014304D0A06A80
:1010300040F01000A0626BE0A16A21F4885141F0F9
:101040000201A162334923688B42E16904D1B1F501
:10105000402F01D14FF40021277B4FF4807C41EADF
:10106000470261680A43A168614509D0012907D098
:101070005FF0000194F814E0BEF1010F02D00AE025
:101080006146F7E7C7B1A76A47F02007A762E76A9A
:1010900047F00107E7625F6827F469470F435F6025
:1010A000236899681C4F394011439960A1686145D4
:1010B0000BD0012909D00CE0DFF860E0A7690EEB46
:1010C00047370F4347F40061E5E7218A0D05A5F591
:1010D00080152168CB6A23F470032B43CB6221680F
:1010E00089680F4B1940914208D1E662A16A21F04C
:1010F000020141F00101A162BDE8F081A06A20F087
:10110000020040F01000A062E06A40F00100E062DE
:101110000120F1E7003C0140FDF7E1FF00E0FFFFA7
:10112000FE0E1FFF08B500680649884208D1064830
:10113000816941F400718161806900F40070009060
:1011400008BD0000002401400010024010B590F8D6
:1011500021100022022905D00421816380F820207B
:10116000012010BD01680B6823F00E030B600168BD
:101170000B6823F001030B6090F84030C46B012131
:1011800001FA03F3636080F8211080F820201046F4
:1011900010BD00002DE9F05F90F821100024022915
:1011A00003D004218163012485E001680A6822F0EC
:1011B0000E020A6001680A6822F001020A603F4ECE
:1011C0003E4FB215DFF8F4C0DFF8F090DFF8ECA086
:1011D000DFF8E8B0DFF8E4E00168783F13011502BA
:1011E000ACF1640CA9F15009AAF13C0AABF1280B4F
:1011F000AEF1140E4FF48018B14227D9B9420ED087
:10120000614512D049451DD0514518D0594518D0D7
:10121000714501D1424615E0294EB14201D101226A
:1012200010E0274E1436B14201D110220AE0244EBC
:101230002836B14206D0224A3C32914201D11A46A8
:1012400000E02A461E49091F0A602BE0B94213D06C
:10125000614517D0494522D051451DD059451DD073
:10126000714501D142461AE0B14202D14FF080727D
:1012700015E0134EB14201D1012210E0104E143698
:10128000B14201D110220AE00D4E2836B14206D0FB
:101290000B4A3C32914201D11A4600E02A460749E6
:1012A00080394A60012180F82110002180F8201047
:1012B000416B01B188472046BDE8F09F80000240A5
:1012C000080402402DE9F05FC16B0A6801680B68F1
:1012D000046C4FF0040808FA04F8844D844E854FDE
:1012E000DFF814C2DFF81492DFF814A2DFF814B2AA
:1012F000DFF814E218EA020F65D05FEA437862D59E
:101300000A68920603D40A6822F004020A60DFF831
:10131000F0814FF48062016808F11408130114028F
:10132000414524D9A9420DD0B1420FD0B9421AD0BB
:10133000614515D0494515D0514501D1120312E040
:10134000594501D104220EE0714501D140220AE045
:101350006D4D1435A94206D06B4A2832914201D115
:101360001A4600E022466749091F0A6029E0A9429F
:1013700013D0B14215D0B94220D061451BD04945A8
:101380001BD0514502D14FF4800217E0414502D1F4
:101390004FF0806212E0594501D104220EE0714500
:1013A00001D140220AE0584D1435A94206D0564AD0
:1013B0002832914201D11A4600E022464B490839B1
:1013C0004A60C16A71E04FF0020808FA04F818EAAE
:1013D000020F70D05FEA83786DD50A68920606D452
:1013E0000A6822F00A020A60012180F82110DFF861
:1013F00010814FF40072016808F1140813011402FF
:10140000414524D9A9420DD0B1420FD0B9421AD0DA
:10141000614515D0494515D0514501D1120312E05F
:10142000594501D102220EE0714501D120220AE086
:10143000354D1435A94206D0334A2832914201D1A4
:101440001A4600E022462F49091F0A6029E0A942F6
:1014500013D0B14215D0B94220D061451BD04945C7
:101460001BD0514502D14FF4001217E0414502D183
:101470004FF0007212E0594501D102220EE0714591
:1014800001D120220AE0204D1435A94206D01E4A7F
:101490002832914201D11A4600E022461349083908
:1014A0004A60002180F82010816A00291CD0BDE824
:1014B000F05F0847FFE70825A540154214D01A073A
:1014C00012D50A6822F00E020A6090F84020C36B21
:1014D000012101FA02F25A60816380F82110002193
:1014E00080F82010016BE0E7BDE8F09F08000240A3
:1014F0001C000240300002404400024058000240FC
:101500006C000240080402401C04024030B560B187
:101510001A4B026814219A4209D2194B1344B3FBA7
:10152000F1F18900016417490AE0012030BD134B35
:101530005B421344B3FBF1F1890001640F490839A0
:10154000C163022180F82110136843F6F0718B43C8
:10155000F0E901142143D0E902452C4321430469F9
:1015600021434469214384692143194311600021C7
:101570004163012242770177084630BD08040240EA
:10158000F8FFFDBF0000024070B5044690F820004F
:10159000002501280CD0012084F8200094F8216057
:1015A0000020012E06D084F820000225284670BDB8
:1015B000022070BD022684F82160A06320680668BE
:1015C00026F0010606602046FFF762FBE06A00286D
:1015D0002068016802D041F00E0106E021F004010C
:1015E00001602068016841F00A010160206801681B
:1015F00041F001010160D9E770B5044600F07AF9C5
:101600000546601C02D004480078044400F072F9DA
:10161000401BA042FAD370BDB0010020034801690D
:1016200041F080010161002070470000002002406D
:101630002DE9F05F07461C4888460024017E1546C8
:101640001E46012909D00121814601764CF2503A0B
:101650005046FFF771FB18B122E00220BDE8F09F71
:10166000012F02D0022F00D00427D346DFF83CA080
:10167000220128463146FEF777FD81B208EB44008F
:10168000FFF71EFB5846FFF757FBDAF8102022F051
:101690000102CAF8102018B9641CE4B2BC42E7D3B6
:1016A000002289F81820D9E7609D00200020024020
:1016B000064900200A69120607D5054A4A60054A0C
:1016C0004A600969090600D50120704700200240E0
:1016D00023016745AB89EFCD2DE9F84FDFF8C891BD
:1016E000002409F1040A0AF1040B23460F270BF129
:1016F000040ED1E00125A54006EA0502AA4276D1F2
:10170000DFF8A8C14E68A6EB0C0866452BD00DDCAF
:10171000032E34D005DC36B3012E19D0022E2FD182
:101720001BE0112E16D0122E2AD119E0B8F5881F11
:1017300019D006DCB8F5803F15D0B8F5801F1FD151
:1017400011E0B8F5001F0ED0B8F5041F18D10AE05B
:10175000CB6815E0CB681B1D12E0CB6808330FE0A7
:10176000CB680C330CE08B682BB1012B4FF00803D6
:1017700003D0456104E0042302E0056100E000239A
:10178000FF2A01D8064601E000F104064FEA84056D
:1017900001D9A5F12005D6F8008007FA05FC28EA52
:1017A0000C0803FA05F548EA0508C6F800804D68FC
:1017B000ED0070D53E4DAE6946F00106AE61AD69F3
:1017C00024F0030605F0010500953A4D06EB050CE3
:1017D000DCF80850A607360F07FA06F825EA0805D0
:1017E000DFF8D480404503D14FF0000825E052E0F7
:1017F000DFF8C880404502D14FF001081DE0DFF856
:10180000C080404502D14FF0020816E0DFF8B480F6
:10181000404502D14FF003080FE0DFF8AC804045AF
:1018200002D14FF0040808E0DFF8A080404502D163
:101830004FF0050801E04FF0060808FA06F848EAFC
:101840000508CCF808804D68D9F80060ED034D46D6
:1018500001D5164300E096432E604D68DAF800602B
:10186000AD03554601D5164300E096432E604D6802
:10187000DBF80060ED025D4601D5164300E09643BB
:101880002E604D68DEF80060AD02754601D5164346
:1018900000E096432E60641C0A681646E2407FF41E
:1018A00029AFBDE8F88F00000004014000001110CE
:1018B000001002400000014000080140000C0140FF
:1018C000001001400014014000180140001C0140BC
:1018D0008068084000D001207047C26821EA0203F6
:1018E0000A4043EA0241016170470AB10161704751
:1018F0000904FBE70148806870470000B001002040
:10190000024881680278114481607047B00100206C
:10191000074810B5016841F010010160032000F094
:1019200075F80F2000F006F800F024F8002010BD34
:101930000020024070B50D4D04464FF47A712878AE
:10194000B1FBF0F00A490968B1FBF0F000F074FB5C
:1019500048B9102C07D200222146501E00F036F85C
:1019600000206C6070BD012070BD0000B00100203F
:10197000BC0100200C4808B5816941F0010181617A
:10198000816901F001010091C16941F08051C1619B
:10199000C06900F0805000900448416821F0E06187
:1019A00041F00071416008BD00100240000001409C
:1019B000002809DB00F01F0201219140400980004E
:1019C00000F1E020C0F8001170470000F0B40E4BA9
:1019D0001B680C46C3F30223C3F10705042D00D98D
:1019E0000425191D072901D2002300E0DB1E012672
:1019F00006FA05F1491E214099409E40761E164088
:101A00003143F0BC02F08EBE0CED00E0064900F060
:101A1000070208684FF6FF03184040EA0220034A15
:101A200010430860704700000CED00E00000FA056C
:101A3000BFF34F8F05480168054A01F4E061114387
:101A40000160BFF34F8F00BFFDE700000CED00E029
:101A50000400FA052DE9F84305460078354CC00727
:101A600054D0E0690026C00008D4E06940F08050FE
:101A7000E061E069012600F0805000902E48016886
:101A8000C90512D40168804641F480710160FFF7F6
:101A900031FF074605E000BFFFF72CFFC01B64289D
:101AA00023D8D8F80000C005F6D5206A10F440709D
:101AB00021D0A98801F4407181421CD0206A1F49BD
:101AC000012220F440700A6000220A602062C007F0
:101AD00011D0FFF70FFF074641F2883808E000BF3A
:101AE000FFF708FFC11B414502D90320BDE8F88379
:101AF000206A8007F4D5206A696820F440700843A2
:101B000020621EB1E06920F08050E06128788007F3
:101B100005D56068A96820F44040084360602878D3
:101B2000C00605D56068696920F4800008436060DC
:101B30000020DBE7001002400070004040044242F9
:101B40002DE9F0470F46050061D0434E306800F0A4
:101B50000700B84209D2306820F0070038433060EF
:101B6000306800F00700B84251D128683B4C81072B
:101B700012D5400703D5606840F4E06060602878C3
:101B8000000703D5606840F4605060606068A96831
:101B900020F0F000084360602878C00728D068680B
:101BA000012810D02168022810D0890700292EDAD8
:101BB000616821F0030101436160FFF79BFE8046ED
:101BC00041F288390DE021688903EFE78901EDE7EB
:101BD000FFF790FEA0EB0801494502D90320BDE8BC
:101BE000F0876068696800F00C00B0EB810FEFD1FE
:101BF000306800F00700B8420BD9306820F00700C9
:101C000038433060306800F00700B84201D001204E
:101C1000E5E72878400705D56068E96820F4E060CA
:101C2000084360602878000706D56068296920F4B9
:101C3000605040EAC100606000F038F86168084A0E
:101C4000C1F30311515CC8400649086006480068AA
:101C5000FFF770FE0020C2E70020024000100240A3
:101C6000645F0008BC010020B4010020044805495D
:101C700000684968044AC1F30221515CC8407047BA
:101C8000BC01002000100240745F000804480549B0
:101C900000684968044AC1F3C221515CC8407047DA
:101CA000BC01002000100240745F000812A185B042
:101CB0000FC98DE80F0014A0144A00680490516801
:101CC000134801F00C03042B10D0082B0ED1C1F3E4
:101CD0008343C9031DF803000AD5516804AAC1F360
:101CE0004041515C0A4A5043B0FBF1F005B07047E7
:101CF00008494843FAE700000203040506070809FB
:101D00000A0B0C0D0E0F1010010200000010024013
:101D100000127A0000093D002DE9F84F040070D050
:101D20002078C04DC00749D06868C0F38100012801
:101D300007D06868C0F38100022809D16868C00331
:101D400006D52868800339D560680028E7D035E0DB
:101D50006068B0F5803F0BD010B1B0F5A02F11D066
:101D6000286820F480302860286820F4802002E071
:101D7000286840F480302860606890B1FFF7BAFDB1
:101D800006460AE0286840F480202860F0E700BF9B
:101D9000FFF7B0FD801B642873D828688003F7D54F
:101DA0000CE0FFF7A7FD064605E000BFFFF7A2FD28
:101DB000801B6428F0D828688003F7D420789A4ED6
:101DC00080074FF001094FF0000839D5686810F01E
:101DD0000C0F07D06868C0F38100022809D1686839
:101DE000C00306D42868800714D52069012808D1CB
:101DF00010E02069B0B1C6F80090FFF77BFD074600
:101E000005E00AE1FFF776FDC01B0228C4D8286868
:101E10008007F7D52868616920F0F80040EAC10022
:101E200028600DE0C6F80080FFF764FD074604E077
:101E3000FFF760FDC01B022823D828688007F7D46D
:101E4000207800072CD57948A169D9B1C0F8009055
:101E5000FFF750FD074604E0FFF74CFDC01B0228CA
:101E60000FD8686A8007F7D571484FF4FA510068B7
:101E7000B0FBF1F0009000BF0098411E0091FAD233
:101E80000EE080E0C0F80080FFF734FD074604E074
:101E9000FFF730FDC01B022875D8686A8007F7D4A9
:101EA0002078400760D5E8690027C00008D4E869B9
:101EB00040F08050E861E869012700F08050009010
:101EC0005C480168C90513D40168834641F48071F8
:101ED0000160FFF70FFD824606E000BFFFF70AFD35
:101EE000A0EB0A0064284ED8DBF80000C005F5D549
:101EF000E06801280AD008B1052813D0286A20F02C
:101F000001002862286A20F0040002E0286A40F0FC
:101F100001002862E06841F2883B98B1FFF7EAFCD3
:101F200082460BE0286A40F004002862EEE700BF1A
:101F3000FFF7E0FCA0EB0A0159455AD8286A800750
:101F4000F6D50CE0FFF7D6FC824605E0FFF7D2FCA1
:101F5000A0EB0A0159454CD8286A8007F6D41FB176
:101F6000E86920F08050E861E06988B36968C1F3EE
:101F70008101022944D00228C6F8608004D0FFF70E
:101F8000B9FC044638E034E0FFF7B4FC074604E04F
:101F9000FFF7B0FCC01B02282BD828688001F7D4BB
:101FA000206AB0F5803F05D16868A16820F4003050
:101FB00008436860D4E908010843696821F4741192
:101FC00008436860C6F86090FFF794FC044606E09A
:101FD00025E000BFFFF78EFC001B022809D8286807
:101FE0008001F7D51BE000BFFFF784FC001B02282F
:101FF00002D90320BDE8F88F28688001F4D40EE0F0
:102000000128F7D06868226A00F48031914204D137
:10201000616A00F47010884201D00120EAE70020D4
:10202000E8E7000000100240000042428004424203
:10203000BC0100200070004010B5401EB0F1807F50
:1020400001D3012010BD4FF0E02460610F21601723
:1020500002F068FB0020A06107202061002010BD75
:102060007047704770B590F83C20012A2CD00124AD
:1020700080F83C40022280F83D2003685A689D6841
:1020800022F070060A6832435A60104B02689A4286
:102090000ED00F4B9A420BD0B2F1804F08D00D4BAF
:1020A0009A4205D00C4B9A4202D00C4B9A4204D172
:1020B000496825F080031943916080F83D40002174
:1020C00080F83C10084670BD022070BD002C014015
:1020D000003401400004004000080040000C0040B3
:1020E00010B5040003D094F83D0010B107E00120C2
:1020F00010BD002084F83C00204600F01FF80220AC
:1021000084F83D00211D206801F06AFB012084F85D
:10211000460084F83E0084F83F0084F8400084F8CC
:10212000410084F8420084F8430084F8440084F8B5
:10213000450084F83D00002010BD000008B500688F
:102140000B49884212D10B48C16941F00201C161BB
:10215000C069002200F00200009011461D20FFF728
:1021600035FCBDE808401D20FFF722BC08BD00007B
:10217000000400400010024070B5044690F83C0096
:10218000012817D0012584F83C50022084F83D0036
:102190002068826822F0770222F47F428260086819
:1021A000502830D00DDC20284DD005DC98B3102805
:1021B0003BD148E0022070BD302844D0402834D1C3
:1021C00039E0602828D0702806D0B0F5805F2CD088
:1021D000B0F5005F29D10AE0CB68D1E90121206880
:1021E00001F051FB2068816841F0770109E0CB687C
:1021F000D1E90121206801F046FB2068816841F4A3
:102200008041816011E0CA684968206801F010FCD3
:102210005021206807E016E0CA684968206801F08C
:1022200018FC6021206801F038FB84F83D50002044
:1022300084F83C0070BDCA684968206801F0F8FB6A
:1022400040212068EFE7226801461046EBE770471F
:1022500070B50446006801694FF00005C94389075D
:1022600015D4C168C943890711D4E91E0161012051
:102270002077206880698007204602D0FFF7E7FFBB
:1022800004E000F0BDF8204600F05EF925772068F4
:102290000169C943490717D4C168C943490713D421
:1022A0006FF004010161022020772068806910F43A
:1022B000407F204602D0FFF7CAFF04E000F0A0F8FC
:1022C000204600F041F9257720680169C9430907D4
:1022D00016D4C168C943090712D46FF0080101611F
:1022E000042020772068C0698007204602D0FFF7CD
:1022F000AEFF04E000F084F8204600F025F92577D1
:1023000020680169C943C90617D4C168C943C90611
:1023100013D46FF010010161082020772068C06994
:1023200010F4407F204602D0FFF791FF04E000F058
:1023300067F8204600F008F9257720680169C9434D
:10234000C90708D1C168C943C90704D1891E016101
:10235000204600F055F920680169C943090609D4EF
:10236000C168C943090605D46FF0800101612046A8
:10237000FFF776FE20680169C943490609D4C168A0
:10238000C943490605D46FF040010161204600F0C1
:1023900038F920680169C94389060BD4C168C9436B
:1023A000890607D46FF0200101612046BDE8704026
:1023B000FFF757BE70BD000000B585B00021009149
:1023C0000191029103910068B0F1804F11D10A4848
:1023D000816941F0040181618069694600F004006F
:1023E0000490012000900220019003900348FFF721
:1023F00073F905B000BD0000001002400008014064
:10240000704770B5044690F83C000D4601280AD08C
:10241000012084F83C0042B1042A18D0082A2AD0AE
:102420000C2A4DD139E0022070BD206801F03EFA3F
:102430002068816941F0080181612068816921F08B
:1024400004018161206881692A69114311E02068D3
:1024500001F05CFA2068816941F4006181612068C3
:10246000816921F480618161206881692A6941EA7A
:102470000221816124E0206801F07EFA2068C169B0
:1024800041F00801C1612068C16921F00401C16106
:102490002068C1692A69114311E0206801F0A0FA9F
:1024A0002068C16941F40061C1612068C16921F4FB
:1024B0008061C1612068C1692A6941EA0221C16164
:1024C000002084F83C0070BD10B5040003D094F8DF
:1024D0003D0010B107E0012010BD002084F83C0051
:1024E000204600F01FF8022084F83D00211D2068DE
:1024F00001F076F9012084F8460084F83E0084F863
:102500003F0084F8400084F8410084F8420084F8D9
:10251000430084F8440084F8450084F83D0000201E
:1025200010BD000008B50068B0F1804F08D1054823
:10253000C16941F00101C161C06900F00100009072
:1025400008BD0000001002407047000010B50446AE
:10255000022249B104290ED0082913D094F8410071
:10256000012816D0012010BD94F83E000128F9D1B1
:1025700084F83E200FE094F83F000128F2D184F85F
:102580003F2008E094F840000128EBD184F8402077
:1025900001E084F841200122206801F067F9134925
:1025A0002068134A884201D0904203D1436C43F41F
:1025B00000434364206888420DD090420BD0B0F1B4
:1025C000804F08D00B49884205D00B49884202D081
:1025D0000A49884204D1816801F00701062903D025
:1025E000016841F001010160002010BD002C014094
:1025F000003401400004004000080040000C00408E
:1026000070477047704710B504460068416994F8F8
:102610003D20C1F3C011212A0BD151B1416921F0F4
:1026200080014161606B08B1FEF790FD204601F02A
:10263000A1FA2068416994F83E20C1F38011222A52
:102640000BD151B1416921F040014161A06B08B14A
:10265000FEF77CFD204601F075FA002010BD7047A2
:10266000F8B5026804461068D168536910F00F0F7E
:102670004FF0000554D003F0010601F49077374382
:102680005FD0C20705D0CA0503D5226C42F0010213
:102690002264420705D5DA0703D0226C42F0020219
:1026A0002264820705D5DA0703D0226C42F00402C7
:1026B0002264020707D501F02002324303D0226CC6
:1026C00042F008022264226C002A35D0800604D52C
:1026D000880602D5204601F056FA20684069216C30
:1026E000C0F3801001F008010143204625D001F01D
:1026F00029FA2068416949061BD5416921F040014A
:102700004161A06BA8B158494163A06BFEF742FD3F
:10271000002811D0A06B416B01B0BDE8F040084724
:1027200083060ED58B060CD52046BDE8F84001F097
:102730002ABA2046FFF793FFF8BDFFF790FF256404
:10274000F8BD266B2023012E52D1C60650D5CE06E9
:102750004ED5106850680090506940062AD5A16B8C
:10276000086840680004000CEAD0A68D8642E7D9CC
:10277000E0858869202818D0D06820F48070D06067
:102780002068416921F0010141612068416921F01F
:102790004001416184F83E3025632068C16821F022
:1027A0001001C160A06BFEF7D1FCA08DE18D401A35
:1027B00081B219E0A08DE18D401A81B2E08D002830
:1027C000BED00029BCD0D06820F49070D0602068C2
:1027D000426922F00102426184F83E30256320689C
:1027E000C26822F01002C2602046FFF70BFFF8BD5E
:1027F00005062BD50D0629D594F83D002128F6D1E4
:10280000A068B0F5805F01D12069B0B1206A411C99
:102810002162216800784860E08C401E0004000CB2
:10282000E084E4D12068C16821F08001C1602068A3
:10283000C16841F04001C160F8BD206A0088C0F362
:1028400008005060206A801C2062E5E74006F3D54E
:102850004806F1D5D168204621F04001D16084F8C6
:102860003D3000F06EF9F8BD773A000870B504000D
:1028700004D094F83D00002510B106E0012070BDA1
:1028800084F83C50204600F023F8242084F83D00D2
:102890002068C16821F40051C160204601F0CEF9E2
:1028A0002068016921F4904101612068416921F0AB
:1028B0002A0141612068C16841F40051C16025646A
:1028C000202084F83D0084F83E00002070BD000008
:1028D0002DE9F04786B000250095019502950395F6
:1028E0000446DFF864C10368584802270321584AA8
:1028F00080264FF020084FF0100963454CD18369C2
:1029000043F480438361836903F4804304938369C0
:1029100043F0040383618069039100F00400049094
:102920005015CDE90007694692461046FEF7D4FEE1
:10293000F0008DE8A10069465046FEF7CDFE464FF7
:102940004448C7E90005C7E902563D61C7E9055893
:102950003846FD61FEF7DAFD08B1FEF7AFF9A7636F
:102960007C623D4F3B4844371438C7E902563D610D
:102970007D61BD61FD61C7E900093846FEF7C6FD0E
:1029800008B1FEF79BF967630022012125207C62D4
:10299000FFF71CF8252051E0DFF8C0C063454FD198
:1029A000C36943F40033C361C36903F40033049380
:1029B000836943F0040383618069039100F004009C
:1029C00004900420CDE90007694692461046FEF7C0
:1029D00083FE08208DE8A10069465046FEF77CFE84
:1029E0001D4F1C4888371430C7E90005C7E9025657
:1029F0003D61C7E905583846FD61FEF787FD08B11E
:102A0000FEF75CF9A7637C62134F1248CC3728307D
:102A1000C7E902563D617D61BD61FD61C7E90009FD
:102A20003846FEF773FD08B1FEF748F967630022E8
:102A3000012126207C62FEF7C9FF2620FEF7B8FFA1
:102A400006B0BDE8F08700000038014000100240E9
:102A50000008014058000240207C00200044004053
:102A600090F83E30202B0ED159B152B190F83C3045
:102A7000012B08D0012380F83C300023036301F0D0
:102A800039B9012070470220704770477047000035
:102A90002DE9F843044690F83D001F4616460D46C2
:102AA00020284CD1C5B1BEB194F83C00012846D0D5
:102AB000012084F83C004FF00008C4F84080212039
:102AC00084F83D00FEF716FFA6848146E684A068E0
:102AD000B0F5805F03D004E00120BDE8F8832069F1
:102AE00028B12E465FF0000584F83C800EE00026F9
:102AF000FAE78021204601F035F9A0B9AEB116F809
:102B0000010B21684860E08C401EE084E08C4B465D
:102B10004FF0000200970028EBD14FF04001204613
:102B200001F020F930B10320D7E735F8020BC0F3EC
:102B30000800E6E7202084F83D000020CDE70220D1
:102B4000CBE77047FEE7000070B5164C206820F018
:102B500070402060206840F040502060A5150022A1
:102B600029462046FEF7C1FE022002F0B1FA0022FB
:102B700080212046FEF7B9FE022002F0A9FA0122C8
:102B800029462046FEF7B1FE022002F0A1FA0022FB
:102B900029462046FEF7A9FEBDE87040012002F05C
:102BA00097BA0000000C014070B5164C206820F068
:102BB00070402060206840F040502060A515002241
:102BC00029462046FEF791FE022002F081FA0122FA
:102BD00080212046FEF789FE022002F079FA0122C8
:102BE00029462046FEF781FE022002F071FA0022FB
:102BF00029462046FEF779FEBDE87040012002F02C
:102C000067BA0000000C01402DE9F041194C002585
:102C1000206820F070402060206840F00040206074
:102C2000012002F055FA0026A71500223946204659
:102C3000FEF75BFE022002F04BFA012239462046E5
:102C4000FEF753FE6806050E80212046FEF740FE83
:102C500008B145F00105012002F03AFA761CF6B2FF
:102C6000082EE2D3002239462046FEF73EFE2846D3
:102C7000BDE8F081000C01402DE9F0411A4C0646F8
:102C80002046216821F070412160216841F04051C7
:102C90002160A71500223946FEF727FE00253006E1
:102CA00001D5012200E0002280212046FEF71DFE12
:102CB0007006060E022002F00BFA01223946204669
:102CC000FEF713FE022002F003FA002239462046E6
:102CD000FEF70BFE022002F0FBF96D1CEDB2082D91
:102CE000DDD3BDE8F0810000000C014070B5134C4D
:102CF000206820F070402060206840F04050206044
:102D0000012280212046FEF7F0FD0122150229460E
:102D10002046FEF7EAFD042002F0DAF900228021C5
:102D20002046FEF7E2FD042002F0D2F929462046B3
:102D3000BDE870400022FEF7D8BD0000000C014045
:102D400070B5144C206820F070402060206840F07E
:102D500000402060A515002229462046FEF7C5FD4B
:102D6000002280212046FEF7C0FD042002F0B0F9C9
:102D7000012229462046FEF7B8FD042002F0A8F9FA
:102D8000012280212046FEF7B0FDBDE870400420FE
:102D900002F09EB9000C014070B5264CC825206891
:102DA00020F070402060206840F0405020600122F8
:102DB00080212046FEF799FD012002F089F9A61531
:102DC000002231462046FEF790FD012002F080F9F6
:102DD000206820F070402060206840F000402060B3
:102DE00005E06D1EEDB2012002F072F9D5B10120AF
:102DF00002F06EF980212046FEF76AFD0028F0D12E
:102E0000012002F065F9012231462046FEF76DFDF2
:102E1000012002F05DF9002231462046FEF765FDF3
:102E2000002070BD002231462046FEF75EFD0120E5
:102E300070BD0000000C014070B5164C1420002538
:102E400060704FF6FF761349032214311248FDF7E4
:102E5000BFF970B16078401EC0B260700128F2D135
:102E60000C493346072259310C48FFF711FE6570B3
:102E700070BD08493346072260310848FFF708FE55
:102E800007480570044805604560058160780128A1
:102E9000E6D0ECE70000002087730020987B00203C
:102EA000880100203EB500211148009101910F4A90
:102EB0000291026081600173017501244FF4602268
:102EC0000461C2614160FEF79BF808B1FDF7F6FEB0
:102ED0001020CDE900040720029069460448FEF75F
:102EE00011F8002801D0FDF7E9FE3EBD00240140A5
:102EF000E8490020154808B5416941F001014161E8
:102F00004069002200F00100009001210E20FEF730
:102F10005DFD0E20FEF74CFD002201210F20FEF783
:102F200055FD0F20FEF744FD002201211020FEF781
:102F30004DFD1020FEF73CFD002201211120FEF77F
:102F400045FDBDE808401120FEF732BD00100240EB
:102F500070B586B000241448009401940294039440
:102F6000816941F004018161816901F004010491EA
:102F7000816941F00801816180690C4E00F0080010
:102F80004FF4C1750490002229463046FEF7ADFC8F
:102F900001200095CDE901040220039069463046E6
:102FA000FEF79AFB06B070BD00100240000C014015
:102FB00010B58AB0002407941C2168460894FDF7D8
:102FC000FCF816484FF0804101604721C0E9011428
:102FD00044F61F61C0E9031480218161FFF774FA90
:102FE00008B1FDF76BFE079407A90C480894FFF79A
:102FF00039F808B1FDF762FE6020CDE900040294C3
:103000000022694605480494FFF7FBF908B1FDF773
:1030100055FE0248FFF7D0F90AB010BD184A00204B
:1030200010B586B0002418480094019402940394CB
:10303000049414490594016041F61F41C0E901144C
:1030400042F20F71C0E9031480218161FFF748F853
:1030500008B1FDF733FE4FF48050009069460A48EE
:10306000FFF78AF808B1FDF729FE049404A9064881
:103070000594FEF7F7FF002801D0FDF71FFE06B00C
:1030800010BD000000040040604A002010B50E4C46
:103090000C480C2120604FF4E13060600020A060FB
:1030A000E060C4E90401A061E0612046FFF7DEFBB7
:1030B00008B1FDF703FE2068C16841F01001C1604E
:1030C00010BD000000380140987B002010B50E4C68
:1030D0000C480C2120604FF4E13060600020A060BB
:1030E000E060C4E90401A061E0612046FFF7BEFB97
:1030F00008B1FDF7E3FD2068C16841F01001C1602F
:1031000010BD000000440040DC7B0020FEE7000012
:10311000F0B5104B4FF6FF7200241A805C604AF243
:1031200001069A680FE0025D1D886A401A8000223D
:103130001D88EF074FEA550500D07540521C1D80D1
:10314000082AF5DB641C8C42EDDBC3E901421888D8
:10315000F0BD00008C010020FEE700000149096875
:1031600048637047184A0020704700002DE9FC4171
:103170000746FFF7BBFD7806000EFFF77DFDFFF762
:103180000BFE2C20FFF778FDFFF706FE0620FFF769
:1031900073FDFFF701FEFFF7D3FD3220FEF72CFA97
:1031A000FFF7A4FD012000EB4700C0B2FFF764FD6C
:1031B000FFF7F2FD28BBFFF727FD60F30F04FFF7D1
:1031C000C3FCFFF721FD60F31F44FFF7BDFCFFF7D1
:1031D0001BFD60F30F06FFF7B7FCFFF715FD60F36B
:1031E0001F46FFF7B1FCFFF70FFD60F30F05FFF778
:1031F000ABFCFFF709FD60F31F45FFF7D5FCFFF7B8
:103200009FFD200C40EA0420310C45EA012180B2E8
:103210008CB2FDF750FA0022154BFDF755F9154D0C
:1032200000222B46FDF7C2F90022134BFDF746F9A9
:10323000FDF761FA06462046FDF73DFA00220F4BE6
:10324000FDF742F900222B46FDF7B0F9FDF753FADE
:10325000FDF73EFA04460D463046FDF739FA0246C0
:103260000B4607A0CDE9004501F04CFABDE8FC8112
:1032700000E06540E0FFEF4000804640000059401C
:10328000252E3266252E32660000000010B54FF65E
:10329000FF742346032210491048FFF7F9FB40F260
:1032A000DC50FEF7A9F9FFF7C7FD0B4923460722BB
:1032B00060310A48FFF7ECFB1E20FEF79DF9064936
:1032C0002346052240310548FFF7E2FBBDE81040E8
:1032D0001E20FEF791B900000E000020DC7B0020CC
:1032E000064A0021D16106490A6942F002020A61D8
:1032F0004861086940F0400008617047C80100203B
:103300000020024010B5002306E000BF30F8024B59
:1033100021F813405B1C9BB29342F7D310BD000011
:103320002DE9F74F1546009C8A46A4F10064B4F5D8
:10333000002F04D3BDE8FE4F31A001F0E3B9FEF742
:10334000B7F9C4F30A06E70AC6F5806084B2A5425D
:1033500000D82C46DFF8B8904FF4806B4FF0006037
:1033600000EBC72080465A462949FFF7CBFF0020D3
:103370004FF6FF7206E0331839F81310914203D16B
:10338000401C80B2A042F6D3A0422CD24046FFF7A8
:10339000A7FF4CF25030FDF7CFFC1E48016921F029
:1033A000020101610020494607E000BF3AF8102001
:1033B0008319401C21F8132080B2A042F6D3404666
:1033C0005A46134900F0E6F8A54214D06000009078
:1033D000281B0AEB440A002685B25C467F1CA542E6
:1033E000BCD82C46BAE74CF25030FDF7A5FC22467B
:1033F00051460098E6E7BDE8FE4FFEF70FB9000022
:1034000057726F6E6720416464726573730D0A00B2
:10341000E8010020002002402DE9F84F5449554EA4
:10342000554DCA7800F604010091544C544F4FF0AA
:1034300000084FF4007A4FF48061012A04D0022A78
:103440004AD00120BDE8F88F89460A46DFF834B13A
:10345000011D5846FFF764FF4A4646495846FFF7A4
:1034600051FF4046C5F800804FEA0A0806EB80018C
:10347000CA7822708A7862704978A17016F8201094
:10348000E170216847F83010401C28604045EDDBB2
:10349000DFF8F4A04A4650460099FFF741FF4A463C
:1034A00034495046FFF72EFF40464A46C5F8008093
:1034B00006EB8001A1F50061CB7823708B786370F7
:1034C0004B78A3700978E170216847F83010401CF0
:1034D00028609042ECDB49E089460A46DFF8ACB050
:1034E000011D5846FFF71CFF4A4622495846FFF780
:1034F00009FF4046C5F800804FEA0A0806EB800144
:10350000CA7822708A7862704978A17016F8201003
:1035100007EBC002E1702168401C51602860404503
:10352000ECDBDFF86CA04A4650460099FFF7F8FE46
:103530004A4610495046FFF7E5FE40464A46C5F860
:10354000008000BF06EB8001A1F50061CB782370FD
:103550008B7863704B78A370097807EBC003E17038
:103560002168401C596028609042EBDB002069E72D
:103570001F63002087730020A0010020A401002009
:10358000307D002000D0070800D8070800E00708B9
:1035900000E807082DE9F04116460F4605460024CD
:1035A0000AE000BF37F81420002329460120FEF767
:1035B0003FF8641CA4B2AD1CB442F3D3BDE8F08163
:1035C0002DE9F0411B4949780D2902D00120BDE8C1
:1035D000F081194C811C18222046FFF7A1FE182209
:1035E00016492046FFF78EFE154C0020134BE06174
:1035F0001448154DE16903EBC10205EBC107D6790B
:10360000067096794670567986701679C670D678A7
:103610000671967846715278827113F83120C27122
:10362000D0E90026C7E90026491CE1610629E1DB53
:103630000020CCE71F63002000F8070887730020F4
:1036400000000020A8010020309D002010B541F2AC
:1036500068020D490D48FFF703FA40F60F020C49C6
:103660000C48FFF7FDF94420FFF780FD4420FFF7E9
:103670007DFD00210848FEF769FF074907480968F2
:10368000406A486310BD0000A84A0020987B0020D3
:10369000105B0020DC7B0020184A00200000002086
:1036A0007047000070B50546134C0E46002020619F
:1036B000B0421FDA104A15F830101C3205EBC0007A
:1036C000D1714178917181785171C178117101790D
:1036D000D1704179917081795170C079107006492B
:1036E0004FF6FF7308221C310448FFF7D1F9206917
:1036F000401CDCE770BD00008C010020987B00209E
:103700002DE9F041114C064600200F4604F1180542
:103710004FF6FF78206114E016F8201006EB8000C9
:10372000E9704178A97081786970C078074928707C
:103730004346042218310648FFF7AAF92069401CC5
:103740002061B842E8DBBDE8F08100008C01002078
:10375000987B0020FEF7D4B830B595B02821684694
:10376000FCF72BFD14210AA8FCF727FD18210FA850
:10377000FCF723FD01210804CDE900100025029586
:1037800002240491CDE907404FF4E0100990684607
:10379000FEF7C2FA08B172B6FEE70AA90F2081E867
:1037A00031004FF48060CDE90D0502210AA8FEF733
:1037B000C7F908B172B6FEE74FF4404011900F947C
:1037C0000FA8FEF747F9002801D072B6FEE715B042
:1037D00030BD70470148FEF73BBD0000604A002045
:1037E000F0B502681C4B1D4D1D4E1E4F1E4C4FF078
:1037F000804C984209D0A04207D0604505D0A8422D
:1038000003D0B04201D0B84204D122F0700E4A6811
:1038100042EA0E02984209D0A04207D0604505D086
:10382000A84203D0B04201D0B84203D122F440757F
:10383000CA682A434D6922F080022A4302608A68DE
:10384000C2620A688262984201D0A04201D109692D
:10385000016301214161F0BD002C014000040040E2
:1038600000080040000C00400034014010B501F099
:103870001F030121046A99408C430462016A9A4043
:103880001143016210BD10B5846842EA032224F49A
:103890007F440A432243826010BD826822F0700296
:1038A0000A4342F00701816070470000F0B5026AE8
:1038B00022F001020262036A42688469124E24F017
:1038C00073050C682C4323F002058B682B430D4DC8
:1038D000A84201D0B04205D123F00807CB683B4392
:1038E00023F00403A84201D0B04205D14D6922F46F
:1038F000407215438A692A43426084614968416382
:103900000362F0BD002C014000340140F0B5026AB2
:1039100022F010020262026A436884690D6824F48E
:10392000E64444EA05248D6822F0200242EA0512AA
:103930000F4D104EA84201D0B04206D1CF6822F000
:10394000800242EA071222F04002A84201D0B042AF
:1039500007D14D6923F4406343EA85038D6943EA47
:10396000850343608461496881630262F0BD0000A1
:10397000002C014000340140F0B5026A22F480724C
:103980000262026A4368C46922F4007224F073057B
:103990000C68124E2C438D6842EA05220E4DA84257
:1039A00001D0B04206D1CF6822F4006242EA072279
:1039B00022F48062A84201D0B04207D14D6923F4BD
:1039C000405343EA05138D6943EA05134360C4611C
:1039D0004968C1630262F0BD002C0140003401401F
:1039E00030B5026A22F480520262046A4268C369F6
:1039F0000D6823F4E64343EA05238D6824F400545C
:103A000044EA0534084DA84202D0084DA84204D12A
:103A10004D6922F4804242EA85124260C3614968DE
:103A20000164046230BD0000002C014000340140FC
:103A300010B5036A046A24F001040462846924F066
:103A4000F00444EA021423F00A020A438461026289
:103A500010BD10B5036A23F0100303628369046A82
:103A600023F4704343EA023224F0A00343EA011135
:103A70008261016210BD10B5406A0021C185C18418
:103A8000FEF7EDFD10BD70B5446A2068406994F8FA
:103A90003D10C0F3C0100025212904D118B1E584E0
:103AA000204600F067F82068406994F83E10C0F3A3
:103AB0008010222904D118B1E585204600F042F893
:103AC000206C40F0100020642046FEF7C8FD70BD59
:103AD00010B50146406A0968096889061BD40021AF
:103AE000C1850168CA6822F48072CA6001684A69A7
:103AF00022F001024A6101684A6922F040024A61EB
:103B0000202180F83E10016B012904D10168CA68A8
:103B100022F01002CA60016B012902D0FEF7B5FF46
:103B200010BD818DFEF76EFD10BD10B5406A016BB2
:103B3000012902D0FEF7AAFF10BD818D4908FEF7CA
:103B400061FD10BD0168CA6822F49072CA60016804
:103B50004A6922F001024A61016B012904D101681E
:103B6000CA6822F01002CA60202180F83E100021AD
:103B7000016370470168CA6822F0C002CA60202150
:103B800080F83D10704708B590F83E10222901D00A
:103B9000022008BD82684FF480539A4201D1016926
:103BA00021B1816A9A421BD04AB10AE00268816A57
:103BB0005268C2F308020A80816A891C08E002691F
:103BC00072B10268526802F07F020A70816A491C71
:103BD0008162C18D491E0904090CC18503D019E019
:103BE00002685268F1E70168CA6822F02002CA60E0
:103BF0000168CA6822F48072CA6001684A6922F0CA
:103C000001024A61202180F83E10016B012903D096
:103C1000FEF73BFF002008BD002101630168CA6870
:103C200022F01002CA6001680A68D20602D50A684A
:103C300049680091818DFEF7E5FCEBE770B504461D
:103C400000680169E26821F4405111430161216972
:103C5000A0680843616908432168CA6841F20C639F
:103C60009A430243CA6020684169A26921F4407105
:103C7000114341611E492068884202D1FEF706F8CF
:103C800001E0FDF7F3FF00EBC00101EB00126068FB
:103C900064218000B2FBF0F3B3FBF1F36FF0180680
:103CA0007343B2FBF0F5B2FBF0F605EB830532236C
:103CB00003EB0515B5FBF1F5B6FBF1F605F0F005E4
:103CC00005EB0615B2FBF0F6B2FBF0F0B0FBF1F03D
:103CD0006FF01802504306EB800003EB0010B0FBBE
:103CE000F1F0216800F00F002844886070BD0000EA
:103CF0000038014038B581628285002513460446AC
:103D00000564222084F83E00A26B13489062A26BE7
:103D10001248D062A26B12481063A06B0A4645633A
:103D20002168A06B091DFDF72FFC20680168416820
:103D3000009184F83C50C16841F48071C1602068F2
:103D4000416941F0010141612068416941F0400150
:103D50004161002038BD0000D13A00082B3B00082B
:103D6000873A00082DE9F041984617460E4604466A
:103D7000069D1DE0681C1BD02DB1FDF7BBFDA0EB1F
:103D80000800A84214D92068C16821F4D071C1602C
:103D90002068416921F001014161202084F83D0043
:103DA00084F83E00002084F83C000320BDE8F08148
:103DB0002068006836EA000004D00020B842D9D05C
:103DC0000020F3E70120F9E7F8B51348006801681F
:103DD000C943C9061BD401680025406800900E48FD
:103DE000FEF711FC0D480068406841F268040C4E73
:103DF00022460C490C48FCF7C7F935802146094892
:103E0000FCF7DBF9224607490348FEF729FEBDE827
:103E1000F8400148FEF724BC987B0020207C00205D
:103E200084010020A84A00201F630020F8B516482E
:103E300000680168C943C90620D4016800244068AD
:103E400000901148FEF7DFFB1048006840681149F8
:103E5000A0F60F004042087040F60F060C4D3246A7
:103E60000D490E48FCF790F92C8031460A48FCF7C2
:103E7000A4F9324608490448FEF7F2FDBDE8F840CF
:103E80000148FEF7EDBB0000DC7B0020A87C002091
:103E90008601002088010020105B0020877300202D
:103EA0002DE9FF4F1C46014683B04FF6FF730422F5
:103EB000E348FEF7EDFD1E20FDF79EFB0322E149DE
:103EC000E148FCF785F9DF4DDFF88093DFF878A350
:103ED000DFF87CB30026143D4FF4806800286AD1D7
:103EE0002046FFF73BF941F268014846FCF765F9C7
:103EF00040F60F015046FCF760F94FF4C870FDF72B
:103F00007BFB4FF6FF73032205F11101CC48FEF74E
:103F1000BFFD4C464FF47A7722E01420FDF76CFB8E
:103F2000C8490822AC31C948FCF752F9C0B906218A
:103F3000C648FFF7EDF8A880E179C2B291420FD1EF
:103F4000A179B1EB102F0BD1AE80C2A000F0DAFB4B
:103F50003846FDF751FB012080F31088FDF768FD1E
:103F60000922C449B848FCF733F90028D5D14FF4E9
:103F70009670FDF741FB34465F46EE610AEB440064
:103F8000B0F8090040BAFCF780FB47F82400641C35
:103F90004445F3DB4146AE48EC61FFF7B1FBB64860
:103FA00041F268010670A948FCF707F940F60F01D5
:103FB000A548FCF702F94FF6FF730422A0480499C4
:103FC000FEF766FD1E20FDF717FB03229D499E4864
:103FD000FCF7FEF8002878D11098FFF7BFF841F2FF
:103FE00068019A48FCF7E9F840F60F019648FCF79B
:103FF000E4F84FF4C870FDF7FFFA92494FF6FF73EB
:104000000322C91E8E48FEF743FD4C464FF47A77D3
:1040100022E01420FDF7F0FA8A490822AC318B48DF
:10402000FCF7D6F8C0B906218848FFF771F8A880D8
:10403000E179C2B291420FD1A179B1EB102F0BD12E
:10404000AE8084A000F05EFB3846FDF7D5FA012073
:1040500080F31088FDF7ECFC092286497A48FCF7CA
:10406000B7F80028D5D14FF49670FDF7C5FA834F05
:104070003446EE610AEB4400B0F8090040BAFCF7A0
:1040800004FB5BF82410FCF702F957F83410FCF736
:1040900004F907EBC4014968FCF7A7F8784941F82F
:1040A0002400641C4445E5DB41467548EC61FFF79C
:1040B00027FB714841F2680106706448FCF77DF8FF
:1040C00040F60F016048FCF778F84FF6FF7423467E
:1040D00004225B480599FEF7DBFC1E20FDF78CFAF5
:1040E000032258495848FCF773F800286FD11198FB
:1040F000FFF734F841F268015448FCF75EF840F6E7
:104100000F015148FCF759F84FF4C870FDF774FAE5
:104110004C4923460322C91E4948FEF7B9FC4C46C8
:104120004FF47A7722E01420FDF766FA4549082219
:10413000AC314648FCF74CF8C0B906214348FEF7BD
:10414000E7FFA880E179C2B291420FD1A179B1EB2A
:10415000102F0BD1AE803FA000F0D4FA3846FDF707
:104160004BFA012080F31088FDF762FC09224149D7
:104170003548FCF72DF80028D5D14FF49670FDF79F
:104180003BFADFF8009134465F46EE610AEB4400EB
:10419000B0F8090040BAFCF778FA57F82410FCF799
:1041A00076F849F82400641C4445EFDB4146354865
:1041B000EC61FFF7A5FA304841F268010670234828
:1041C000FBF7FBFF40F60F011F48FBF7F6FF6420EB
:1041D000FDF712FA2A4CDFF8B09004F5005AEE61B0
:1041E000E86954F820704F4504D2264951F820B0B0
:1041F000CB4502D34AF8206015E0286AFCF768FA3C
:10420000CDE9000159463846FCF779F8FCF760FA29
:1042100001F040F9DDE90023FCF7C8F9FCF76BFA7F
:10422000EA694AF82200E869401CE8614045D7DBAA
:1042300007B04146BDE8F04F1448FFF761BA0000EF
:10424000DC7B002014000020877300201F63002007
:10425000E809002057696C6C207265737461727490
:1042600020746865204D435520696E203173202EDF
:104270002E2E00007B01002088010020307D0020D0
:10428000E8190020E829002000008080E83900209B
:104290002DE9FF5F1C4601464FF6FF730422DE48FE
:1042A000FEF7F6FB1E20FDF7A7F90322DB49DC48E9
:1042B000FBF78EFFD94DDFF86C93DFF864B3DFF8BE
:1042C00068A30026143D4FF4806800286BD1204677
:1042D000FEF744FF41F268014846FBF76EFF40F6E7
:1042E0000F015846FBF769FF4FF4C870FDF784F9DA
:1042F0004FF6FF73032205F11101C748FEF7C8FB13
:104300004C464FF47A7722E01420FDF775F9C34943
:104310000822AC31C348FBF75BFFC0B90621C14896
:10432000FEF7F6FEA880E179C2B291420FD1A179E1
:10433000B1EB102F0BD1AE80BCA000F0E3F93846F2
:10434000FDF75AF9012080F31088FDF771FB09226F
:10435000BE49B348FBF73CFF0028D5D14FF4967017
:10436000FDF74AF934465746C5F81C600BEB44008C
:10437000B0F8090040BAFCF788F947F82400641C3B
:104380004445F3DB4146A848EC61FFF7B9F9B04872
:1043900041F268010670A348FBF70FFF40F60F01DA
:1043A0009F48FBF70AFF4FF6FF7304229A480199D2
:1043B000FEF76EFB1E20FDF71FF903229749984870
:1043C000FBF706FF002878D10E98FEF7C7FE41F2F2
:1043D00068019448FBF7F1FE40F60F019048FBF7A7
:1043E000ECFE4FF4C870FDF707F98C494FF6FF73E8
:1043F0000322C91E8848FEF74BFB4C464FF47A77E0
:1044000022E01420FDF7F8F884490822AC318548F1
:10441000FBF7DEFEC0B906218248FEF779FEA880D0
:10442000E179C2B291420FD1A179B1EB102F0BD13A
:10443000AE807EA000F066F93846FDF7DDF8012079
:1044400080F31088FDF7F4FA092280497448FBF7DD
:10445000BFFE0028D5D14FF49670FDF7CDF87D4F03
:104460003446EE610BEB4400B0F8090040BAFCF7AB
:104470000CF95AF82410FBF70AFF57F83410FBF731
:104480000CFF07EBC4014968FBF7AFFE724941F826
:104490002400641C4445E5DB41466F48EC61FFF7AE
:1044A0002FF96B4841F2680106705E48FBF785FE04
:1044B00040F60F015A48FBF780FE4FF6FF74234683
:1044C000042255480299FEF7E3FA1E20FDF794F8FE
:1044D000032252495248FBF77BFE00286FD10F9808
:1044E000FEF73CFE41F268014E48FBF766FE40F6DF
:1044F0000F014B48FBF761FE4FF4C870FDF77CF8E5
:10450000464923460322C91E4348FEF7C1FA4C46DA
:104510004FF47A7722E01420FDF76EF83F49082225
:10452000AC314048FBF754FEC0B906213D48FEF7C8
:10453000EFFDA880E179C2B291420FD1A179B1EB30
:10454000102F0BD1AE8039A000F0DCF83846FDF713
:1045500053F8012080F31088FDF76AFA09223B49DD
:104560002F48FBF735FE0028D5D14FF49670FDF7A4
:1045700043F8DFF8E89034465746EE610BEB440011
:10458000B0F8090040BAFCF780F857F82410FBF7A0
:104590007EFE49F82400641C4445EFDB41462F4869
:1045A000EC61FFF7ADF82A4841F2680106701D483A
:1045B000FBF703FE40F60F011948FBF7FEFD6420F0
:1045C000FDF71AF8244C264F04F50059EE61E8690E
:1045D00054F82020BA4204D2204951F82010B942A0
:1045E00002D349F820600BE01046FBF788FEFCF789
:1045F0006FF800F04FFFFCF77EF8EA6949F82200F7
:10460000E869401CE8614045E1DB04B04146BDE893
:10461000F05F1448FFF774B8DC7B00201400002022
:10462000877300201F630020E809002057696C6C25
:10463000207265737461727420746865204D4355EF
:1046400020696E203173202E2E2E00007B01002069
:1046500088010020307D0020E8190020E829002092
:1046600000008080E8390020FEE7000070B54FF6BA
:10467000FF751F4C10E01E49032214311D48FBF743
:10468000A7FD80B11A49032217311A48FBF7A0FD94
:1046900070B12078401C207020780A28EBD3207855
:1046A0000A280DD013E0124903222B46083103E0FB
:1046B0000F4903222B460B310F48FEF7E9F9EEE7CD
:1046C0000B492B46072259310B48FEF7E1F90B49FC
:1046D00000202070087041F268010948FBF76DFD69
:1046E000BDE8704040F60F010248FBF766BD0000D0
:1046F0000000002087730020987B002088010020A4
:104700001F6300200FB4054B10B503A9044A02989B
:1047100000F046F910BC5DF814FB000021510008C0
:10472000C00100200907090E002804DB00F1E02089
:1047300080F80014704700F00F0000F1E02080F8CE
:10474000141D70472DE9F0414F1E00EBC7010446D0
:10475000D1E9000115461E4637F006020DD02A4663
:104760003346FBF7B1FE7F1E04EBC703D3E90023FA
:10477000FBF703FE37F00602F1D1022F25D0042FFC
:1047800013D0062F18BFBDE8F0812A463346FBF749
:104790009BFED4E90A23FBF7F0FD2A463346FBF7DC
:1047A00093FED4E90823FBF7E8FD2A463346FBF7DE
:1047B0008BFED4E90623FBF7E0FD2A463346FBF7E0
:1047C00083FED4E90423FBF7D8FD2A463346FBF7E2
:1047D0007BFED4E90223FBF7D0FD2A463346FBF7E4
:1047E00073FED4E90023BDE8F041FBF7C6BD00002D
:1047F0000022134610460149FBF7D8BE0000F03FE7
:104800000122FCF790B80022134610461146FBF730
:10481000CDBE02E008C8121F08C1002AFAD17047B5
:104820007047002001E001C1121F002AFBD1704730
:104830000149086070470000C40100202DE9FF5FB6
:10484000DDE90220010DDDF838B0024318D044F64E
:104850001050A1F2FF3141430D140F98012820D0D0
:10486000A5EB0B00401C5FEA000A4FF00004474E26
:10487000DFF81C91A046504616D5CAF1000728E083
:104880000F98012443A2012808D0002100980F9B13
:10489000C0E90021C0E90243BDE8FF9F6FEA0B01B8
:1048A000F4E7CBF10000DEE7074612E0F80707D097
:1048B0002246334640464946FBF706FE8046894677
:1048C0002246334610461946FBF7FEFD04460E46C7
:1048D0007F10002FEAD1DDE90201BAF1000F424654
:1048E0004B4602DAFBF7F0FD01E0FBF75FFE044602
:1048F0000E460022284BFCF745F803D84FF0FF3056
:10490000014607E00022254B20463146FBF735FDE6
:10491000FCF720F8102409E0002C0ADB0A2200230F
:10492000FBF71BFF019B30321A55641E50EA01024F
:10493000F2D1641C019AC4F1110314440F9A012AA4
:1049400003D0012208430DD10AE0084304D000201F
:104950004FF0110B0F9080E7A3EB0B056D1E0DE0E0
:104960005B4504DD4FF0000205F1010504E003DAC8
:104970004FF00002A5F10105002AECD000980F9934
:10498000C0E90231C0E9004586E70000000024408C
:104990000000F03F300000000000F0430000E03F66
:1049A0002DE9FF4F95B09B468946064600250FE24C
:1049B000252877D100242746F84A0121059400E0F4
:1049C000044316F8013F203B01FA03F01042F7D1EF
:1049D00030782A2811D06FF02F033078A0F1300200
:1049E000092A16D8059A44F0020402EB820203EB6E
:1049F00042021044761C0590EFE759F8042B05920B
:104A0000002A03DA504244F40054059044F00204B2
:104A1000761C30782E2816D116F8010F44F00404C5
:104A20002A280DD06FF02F023078A0F13003092B27
:104A300009D807EB870302EB4303C718761CF3E79B
:104A400059F8047B761C30786C280FD006DC4C2893
:104A500017D068280DD06A2814D104E0742810D02B
:104A60007A280FD10DE044F400140AE044F48014D5
:104A700001E044F440147278824202D104F58014BB
:104A8000761C761C307866280BD013DC582877D03B
:104A900009DC002875D04528F6D04628F4D04728F0
:104AA0001AD19DE118E0632835D0642879D06528B3
:104AB00012D195E1702873D008DC6728F1D06928FD
:104AC0006FD06E280DD06F2806D1B5E073282CD09A
:104AD000752875D0782874D05A46179990476D1C60
:104AE00075E1C4F30250022809D003280DD0D9F88B
:104AF000001004280DD00D6009F1040967E1D9F810
:104B00000010EA17C1E90052F6E7D9F800100D804D
:104B1000F2E70D70F0E719F8041B8DF80010002083
:104B20008DF80100EA46012003E059F804AB4FF08C
:104B3000FF3061074FF0000102D40DE008F10101E0
:104B40008846B9420FDA8045F8DB1AF808100029C8
:104B5000F4D108E008F1010188468142FADB1AF835
:104B600008100029F6D105985B46A0EB08072146FE
:104B70003846179A00F094FA284400EB080507E03D
:104B80004DE029E10DE01AF8010B5A4617999047BC
:104B9000B8F10108F7D25B4621463846179A13E16F
:104BA00042E00A220092C4F302524FF0000A022AA5
:104BB00008D059F804CB032A4FEAEC710AD00DE073
:104BC00029E02AE009F1070121F00702F2E802C119
:104BD000914609E00FFA8CFC4FEAEC71042A03D1EC
:104BE0004FFA8CFC4FEAEC71002907DA0A460021E3
:104BF000DCF1000C61EB02012D2202E0220504D55C
:104C00002B228DF80420012203E0E20701D02022AC
:104C1000F7E7904659E00A2102E010220DE010214A
:104C20004FF0000A00910BE010224FF0000A44F010
:104C300004040827009203E008224FF0000A0092C3
:104C4000C4F30252022A05D059F804CB0021032AEA
:104C500008D009E009F1070121F00702F2E802C1DA
:104C6000914605E01FFA8CFC042A01D10CF0FF0CE0
:104C70004FF00008220728D5702806D0009B83F04B
:104C8000100353EA0A0305D00EE040228DF80420F9
:104C9000012208E05CEA010206D030228DF80420EF
:104CA0008DF8050002229046009B83F0080353EA2A
:104CB0000A030AD15CEA010201D1620705D530225C
:104CC0008DF804204FF001087F1E582804D034A02E
:104CD00003900EA802900DE036A0F9E75346604617
:104CE000009AFBF73AFD84460398825C0298401EC6
:104CF000029002705CEA0100F0D1029806A9081A3D
:104D000000F1200A600702D524F4803400E0012776
:104D1000574502DDA7EB0A0000E0002000EB0A0186
:104D2000009005984144401A0590E00306D45B4684
:104D30002146179A059800F0B3F90544002706E0CC
:104D400001A85A46C05D179990476D1C7F1C4745C6
:104D5000F6DBE0030CD55B462146179A059800F078
:104D60009FF9054404E030205A46179990476D1C7E
:104D70000099481E00900029F5DC08E0029802998D
:104D80005A460078491C0291179990476D1CBAF158
:104D90000001AAF1010AF1DC65E100000928010027
:104DA00030313233343536373839616263646566A1
:104DB0000000000030313233343536373839414263
:104DC000434445460000000000F058F90544761CB5
:104DD000307800287FF4ECAD19B02846BDE8F08F9C
:104DE000620700D4062709F1070222F0070CFCE84D
:104DF0000223E14603F000485FEA080C02D00FF2FC
:104E0000702C0DE05FEA045C02D50FF2682C07E01D
:104E10005FEAC47C02D00FF2602C01E0AFF2700CAC
:104E20004FF0FF3823F00043CDF850C065280CD078
:104E300006DC452809D046281DD047283DD13DE055
:104E4000662818D067287ED138E00021112F01DBB9
:104E5000112000E0781CCDE9000106A90EA8FFF79B
:104E6000EDFCDDE90F010E9A03910021009207F19C
:104E7000010A04914DE04FF000400097CDE9011088
:104E800006A90EA8FFF7DAFCDDE90F0203920E9BDC
:104E900011990022DDF80CA00093049211B9791C3D
:104EA00000EB010AB7EB0A0004D4C0F1FF3007F1B0
:104EB000010A0490AAEB0700019044E0012F00DAF8
:104EC00001270021112F01DD112000E03846CDE936
:104ED000000106A90EA8FFF7B1FCDDE90F010E9A4B
:104EE0000391002104910092BA4621070CD4039942
:104EF000514500DA8A46BAF1010F05DD009AAAF1A0
:104F00000101515C302908D0B84202DA10F1040FD7
:104F100006DA0121CDE9011015E0AAF10101E9E766
:104F2000002805DC049901440491AAEB000102E089
:104F3000411C514500DD8A460499401A401C0190ED
:104F40004FF000400290200704D40198504501DB47
:104F5000CDF8048000208DF84F0002980DF14F0726
:104F6000B0F1004F25D02B200E9002984FF0020890
:104F700000280CDA404202902D200E9007E00A2112
:104F80000298FBF7D4FB3031029007F8011DB8F10D
:104F90000001A8F10108F2DC02980028EFD1791E87
:104FA0000E980870307800F0200040F0450007F8B7
:104FB000020D12A8C01B00F107081498007800B178
:104FC000012000EB0A01019801EBE07105984144D2
:104FD000401A401E0590E00306D45B462146179A0E
:104FE000059800F05DF805441498007818B15A4609
:104FF000179990476D1CE00324D55B462146179A0C
:10500000059800F04DF805441CE00498002807DBE3
:10501000DDE90301884203DD0098405C179901E057
:10502000179930205A469047049805F10105401C15
:1050300004900198401E019004D12E205A461799E1
:1050400090476D1CBAF10001AAF1010ADDDC05E010
:1050500017F8010B5A46179990476D1CB8F10001DB
:10506000A8F10108F4DC5B462146179A0598ABE6E7
:105070002D0000002B000000200000002DE9F04171
:10508000044600251E461746880404D405E0394628
:105090002020B0476D1C641EF9D52846BDE8F0817C
:1050A0002DE9F041044600251E469046C80301D56F
:1050B000302700E02027880404D505E04146384623
:1050C000B0476D1C641EF9D52846BDE8F08100008C
:1050D00071B54FF461754FF0E023104E009819E060
:1050E0002C46A04200D804469869614201EBC101F8
:1050F00010EBC10105D49A69824208DA8A42FADAD1
:1051000005E08A1999698142FCDD9142FADC009838
:10511000001B00900028E3D178BD00004019010079
:1051200004490A685206FCD5024AC1B2121D116038
:1051300070470000003801402DE9F04DC84A0024B6
:1051400090B0914205DA21F00043934201D805D195
:1051500020B110B0BDE8F04DFFF752BBB1F5801F94
:105160001BDA53EA000209D0002911DA0120FFF707
:105170005FFB10B0BDE8F04DFFF745BB0220FFF725
:1051800057FBFFF735FB10B081F00041BDE8F08D13
:105190006FF035043622FBF7C6FB04EB2152C1F356
:1051A0001308B049A2F2FF33414401F4801282F0A7
:1051B0007F6103EB225281F04051009241EA0801E5
:1051C0000022A94BFBF77AF9044608F10200A74E2A
:1051D000C0F313000D467E44032867D2D6E90023AE
:1051E0002046FBF7F9FB1ED10098002802BFD6E944
:1051F000000110B0BDE8F08DFBF74CFA07460C46F5
:105200009B4A9C4BFBF760F906460D469A4A9B4B1E
:1052100038462146FBF758F910B032462B46BDE818
:10522000F04DFBF7AAB84FF05532954B2046294672
:10523000FBF74AF90022934BFBF743F906460F466A
:1052400022462B4610461946FBF73EF932463B46AE
:10525000FBF73AF9064600980F46F0B1FBF71AFA49
:1052600080468A46824A834BFBF72EF932463B46FC
:10527000FBF727F922462B46FBF720F905460C469B
:105280007D4A7E4B40465146FBF71EF910B02A4638
:105290002346BDE8F04DFBF711B90B4610B032467E
:1052A00020462946BDE8F04DFBF708B900224FF033
:1052B00080432046FBF761F802460B46204629460C
:1052C000FBF774F906460F460098FBF7E3F9CDE9C2
:1052D000040132463B4610463946FBF7F5F80C9080
:1052E00069480C9A4044019009910B461046FBF71F
:1052F000EBF88246024665488B46C8F151080B46DA
:1053000008F5D72803217844FFF71CFA52465B467C
:10531000FBF7DAF80A905E480D9152465B4604218D
:105320007844FFF70FFA099B0C9AFBF7CDF88446F7
:1053300001980D9B40EA080860460A9AFBF71DF8A1
:1053400083460891B8F1000F4EDD4FF0FF32204642
:105350002946FBF7E8FA22462B46FBF7B5F88046CC
:1053600000988A4660B3DDE90401414A414BFBF7EE
:10537000ABF8099100905A4640465146089BFAF70F
:10538000FCFF32463B46FBF79FF8099B009AFAF771
:10539000F4FF42465346FBF794F822462B46FBF7B0
:1053A0008DF804460D46DDE90401334A334BFBF723
:1053B0008BF810B022462B46BDE8F04DFBF77EB8C7
:1053C0005A464046089BFAF7D8FF32463B46FBF761
:1053D0007BF842465346FBF774F810B022462B4642
:1053E000BDE8F04DFBF76DB8009840B3DDE904016E
:1053F0001F4A204BFBF768F880468A465A462046EB
:105400002946089BFBF75AF832463B46FBF75CF807
:1054100042465346FBF752F822462B46FBF74EF81E
:1054200004460D46DDE90401134A144BFBF74CF822
:1054300010B022462B46BDE8F04DFBF73FB80B46B7
:105440005A4620462946FBF739F832463B46FBF7D9
:105450003BF810B022462B46BDE8F04DFBF731B8C3
:105460000000F07F645F09000000F03FDE0D0000E7
:10547000763C7935EF39EA3D0000E0FE422EE63F0A
:105480005555D53F0000E03F86EBF9FF760C000054
:10549000740C00002DE9F04104463048002581429B
:1054A00005DA21F00042824201D805D124B120461C
:1054B000BDE8F041FFF7A4B9B1F5801F1BDA52EA4D
:1054C000040008D000290FDA0120FFF7B1F9BDE888
:1054D000F041FFF798B90220FFF7AAF9FFF788F922
:1054E00081F00041BDE8F0816FF03505362220469D
:1054F000FBF719FA044605EB2150A0F2FF32D00F5A
:1055000040F2FF331B1A0D4663F31F551044FBF79F
:10551000C1F806460F4629462046FFF70DFE104A01
:10552000104BFAF7D1FF04460D460F4A0F4B304699
:105530003946FAF7C9FF22462B46FAF71EFF054601
:105540000C460B4A0B4B30463946FAF7BDFF2A464C
:105550002346BDE8F041FAF710BF00000000F07FDD
:105560000EE526157BCBDB3F362BF111F3FE593DC3
:1055700000609F501344D33F86B0FCF7C9F9FE4842
:1055800000210162416241F26801FC48FAF715FE10
:1055900040F60F01FA48FAF710FE4FF40051F948AF
:1055A000FAF70BFEFEF7D8F8FDF7D2FCFDF77AFC10
:1055B000FDF7FEFCFDF79EFCFDF768FDFDF786FD9F
:1055C000FDF72EFDFBF778FAFEF740F8FDF75EFEDB
:1055D000ED4FEE4802900221ED48FCF77EF93220B3
:1055E000FCF70AF8E44906227839E448FAF7F0FDB6
:1055F00000287DD0E04906227039E048FAF7E8FD3E
:10560000002876D0DC4902223839DC48FAF7E0FD80
:1056100000286FD0D84906226839D848FAF7D8FD53
:10562000002868D0D44902223039D448FAF7D0FD96
:1056300000287DD0D04906226039D048FAF7C8FD4D
:10564000002876D00622CC49CC48FAF7C1FD0028C4
:1056500070D0C94902223E31C848FAF7B9FD002886
:1056600069D0C54906225839C448FAF7B1FD002867
:105670007ED0C1490222FA39C048FAF7A9FD0028B4
:1056800077D0BD4906225039BC48FAF7A1FD002861
:1056900070D0B94906224839B848FAF799FD002870
:1056A00069D0B54902221031B448FAF791FD0028BB
:1056B0007DD0B14906222839B048FAF789FD002883
:1056C00076D0AD4906222039AC48FAF781FD002892
:1056D0006FD0A94906221839A848FAF779FD0028A1
:1056E00068D0A54906221039A448FAF771FD03E0F5
:1056F0002EE067E08BE0B5E000287DD09E490622D1
:1057000008399E48FAF764FD002876D09A490622A7
:1057100008319A48FAF75CFD00286FD096490622B6
:1057200018319648FAF754FD00287FF454AF03E08F
:10573000C0E0F5E041E1E5E106219048FDF7E8FC35
:10574000944C8E49C3B2A080CA799A427DD0E4E0DD
:1057500006218A48FDF7DCFC8E49884AC4B288805D
:10576000D379A342F3D19279B2EB102FEFD103E0BA
:1057700018E236E27DE29CE200208880486AFDF76C
:10578000EDFC84494FF6FF74234603220E31824814
:10579000FDF77EF940F2DC50FBF72EFF7D492346F2
:1057A00007226E317C48FDF773F91E2003E0A3E267
:1057B000D5E205E317E3FBF71FFF764905222346F1
:1057C0004E31A1E006216D48FDF7A2FC71496B4AFC
:1057D000C4B28880D379A3427ED19279B2EB102FE4
:1057E0007AD1002088804FF6FF7423460122C91C1D
:1057F0006A48FDF74DF902E008E32EE34FE35E4906
:105800001522234628316548FDF742F96EE206214C
:105810005A48FDF77DFC5F4C5849C3B2A080CA7955
:105820009A427AD18979B1EB102F76D10025A580E3
:105830000420009003230222504904F1670000F085
:105840007BFB052104F1670000E04EE3FDF760FCFF
:1058500004F167014FF6FF738871000A4871A58053
:10586000072251E006214548FDF752FC4949434AC9
:10587000C4B28880D379A3424FD19279B2EB102F72
:105880004BD100248C804FF6FF752B460422343117
:105890004148FDF7FDF81E20FBF7AEFE0420009006
:1058A0003C4802231A463649753000F045FB2B462A
:1058B00005225CE006213148FDF72AFC354C2F49D2
:1058C000C3B2A080CA799A4227D18979B1EB102F4F
:1058D00023D10025A58000E01FE0022002460090B1
:1058E0000523264904F1490000F026FB032104F1B9
:1058F0004900FDF70DFC04F149014FF6FF730871F3
:10590000000AC870A58005222348FDF7C1F81E20B3
:10591000FBF772FEFEF7AAFE5DE64FF6FF733DE170
:1059200006211648FDF7F4FB1A49144AC4B28880D0
:10593000D379A342F1D19279B2EB102FEDD10024AB
:105940008C804FF6FF752B46042238311248FDF744
:105950009FF81E20FBF750FE0220034602460090EF
:105960000C480749753000F0E7FA2B460322094935
:105970000A48753114E00000000100201F63002078
:1059800087730020307D00209C0100201F730020C1
:10599000000C014000000020DC7B0020987B0020F0
:1059A000FDF776F8F84841F268010470F748FAF715
:1059B00004FC40F60F01F6489BE10621F348FDF791
:1059C000A7FBF44AF149C4B29080CB79A342A4D199
:1059D0008979B1EB102FA0D1002090804FF6FF7392
:1059E0000922ED49ED48FDF753F80120EC4E3860EF
:1059F000FAF750FED6E9082304460D46FAF764FD8F
:105A00000491D6E90623824620462946FAF75CFD32
:105A100022462B46FAF758FDCDE90001D6E90423CA
:105A200020462946FAF750FD22462B46FAF74CFD50
:105A300022462B46FAF748FD0391D6E90223834616
:105A400020462946FAF740FD22462B46FAF73CFD50
:105A500022462B46FAF738FD22462B46FAF734FD4C
:105A6000D6E900238046894620462946FAF72CFDD0
:105A700022462B46FAF728FD22462B46FAF724FD4C
:105A800022462B46FAF720FD22462B46FAF71CFD4C
:105A900042464B46FAF771FC5A46039BFAF76DFCF7
:105AA000DDE90023FAF769FC5246049BFAF765FC2E
:105AB000D6E90A23FAF761FCB64A4FF6FF73803243
:105AC000C2E90001B7481178C171517881719178AC
:105AD0004171D17801711179C170517981709179D9
